{
  "address": "0x4ed7c70F96B99c776995fB64377f0d4aB3B0e1C1",
  "abi": [
    {
      "inputs": [
        {
          "internalType": "address",
          "name": "_storage",
          "type": "address"
        },
        {
          "internalType": "address",
          "name": "_farm",
          "type": "address"
        }
      ],
      "stateMutability": "nonpayable",
      "type": "constructor"
    },
    {
      "anonymous": false,
      "inputs": [
        {
          "indexed": false,
          "internalType": "address",
          "name": "token",
          "type": "address"
        },
        {
          "indexed": false,
          "internalType": "address",
          "name": "pool",
          "type": "address"
        }
      ],
      "name": "TokenPoolSet",
      "type": "event"
    },
    {
      "inputs": [],
      "name": "cake",
      "outputs": [
        {
          "internalType": "address",
          "name": "",
          "type": "address"
        }
      ],
      "stateMutability": "view",
      "type": "function"
    },
    {
      "inputs": [],
      "name": "farm",
      "outputs": [
        {
          "internalType": "address",
          "name": "",
          "type": "address"
        }
      ],
      "stateMutability": "view",
      "type": "function"
    },
    {
      "inputs": [],
      "name": "governance",
      "outputs": [
        {
          "internalType": "address",
          "name": "",
          "type": "address"
        }
      ],
      "stateMutability": "view",
      "type": "function"
    },
    {
      "inputs": [],
      "name": "pancakeswapRouterV2",
      "outputs": [
        {
          "internalType": "address",
          "name": "",
          "type": "address"
        }
      ],
      "stateMutability": "view",
      "type": "function"
    },
    {
      "inputs": [
        {
          "internalType": "address",
          "name": "",
          "type": "address"
        },
        {
          "internalType": "address",
          "name": "",
          "type": "address"
        },
        {
          "internalType": "uint256",
          "name": "",
          "type": "uint256"
        }
      ],
      "name": "pancakeswapRoutes",
      "outputs": [
        {
          "internalType": "address",
          "name": "",
          "type": "address"
        }
      ],
      "stateMutability": "view",
      "type": "function"
    },
    {
      "inputs": [
        {
          "internalType": "address",
          "name": "_token",
          "type": "address"
        },
        {
          "internalType": "uint256",
          "name": "_amount",
          "type": "uint256"
        }
      ],
      "name": "poolNotifyFixedTarget",
      "outputs": [],
      "stateMutability": "nonpayable",
      "type": "function"
    },
    {
      "inputs": [],
      "name": "profitSharingPool",
      "outputs": [
        {
          "internalType": "address",
          "name": "",
          "type": "address"
        }
      ],
      "stateMutability": "view",
      "type": "function"
    },
    {
      "inputs": [
        {
          "internalType": "address",
          "name": "from",
          "type": "address"
        },
        {
          "internalType": "address",
          "name": "to",
          "type": "address"
        },
        {
          "internalType": "address[]",
          "name": "_pancakeswapRoute",
          "type": "address[]"
        }
      ],
      "name": "setConversionPath",
      "outputs": [],
      "stateMutability": "nonpayable",
      "type": "function"
    },
    {
      "inputs": [
        {
          "internalType": "address",
          "name": "_store",
          "type": "address"
        }
      ],
      "name": "setStorage",
      "outputs": [],
      "stateMutability": "nonpayable",
      "type": "function"
    },
    {
      "inputs": [
        {
          "internalType": "address",
          "name": "_pool",
          "type": "address"
        }
      ],
      "name": "setTokenPool",
      "outputs": [],
      "stateMutability": "nonpayable",
      "type": "function"
    },
    {
      "inputs": [],
      "name": "store",
      "outputs": [
        {
          "internalType": "contract Storage",
          "name": "",
          "type": "address"
        }
      ],
      "stateMutability": "view",
      "type": "function"
    },
    {
      "inputs": [],
      "name": "targetToken",
      "outputs": [
        {
          "internalType": "address",
          "name": "",
          "type": "address"
        }
      ],
      "stateMutability": "view",
      "type": "function"
    },
    {
      "inputs": [],
      "name": "usdt",
      "outputs": [
        {
          "internalType": "address",
          "name": "",
          "type": "address"
        }
      ],
      "stateMutability": "view",
      "type": "function"
    },
    {
      "inputs": [],
      "name": "vai",
      "outputs": [
        {
          "internalType": "address",
          "name": "",
          "type": "address"
        }
      ],
      "stateMutability": "view",
      "type": "function"
    },
    {
      "inputs": [],
      "name": "wbnb",
      "outputs": [
        {
          "internalType": "address",
          "name": "",
          "type": "address"
        }
      ],
      "stateMutability": "view",
      "type": "function"
    },
    {
      "inputs": [],
      "name": "xvs",
      "outputs": [
        {
          "internalType": "address",
          "name": "",
          "type": "address"
        }
      ],
      "stateMutability": "view",
      "type": "function"
    }
  ],
  "transactionHash": "0xa1c48b5289fe7a2a41e8fa29e48bbcb83334831ec3a31c6447b8399f30cb5012",
  "args": [
    "0xc6e7DF5E7b4f2A278906862b61205850344D4e7d",
    "0x59b670e9fA9D0A427751Af201D676719a970857b"
  ],
  "solcInputHash": "57f9f263b44ce41c9bd50662a3b0194b",
  "bytecode": "0x60806040523480156200001157600080fd5b506040516200164038038062001640833981810160405260408110156200003757600080fd5b508051602090910151816001600160a01b0381166200009d576040805162461bcd60e51b815260206004820152601e60248201527f6e65772073746f726167652073686f756c646e277420626520656d7074790000604482015290519081900360640190fd5b600080546001600160a01b0319166001600160a01b03928316179055811662000101576040805162461bcd60e51b815260206004820152601160248201527017d9985c9b481b9bdd081919599a5b9959607a1b604482015290519081900360640190fd5b600180546001600160a01b0319166001600160a01b03831617905560408051808201909152730e09fabb73bd3ade0a17ecc321fd13a19e81ce82815273bb4cdb9cbd36b01bd1cbaebf2de08d9173bc095c60208083018290526000919091527f849964a1aa01c07acd7f4968efd737f04e85e58e94bfac13494317ab661bd88c9052620001b2907faaea0f8bf3c6c9729f1f051dcce18d97d28c0d624882c88caf30ef0ea30b7e3790600262000252565b506040805180820190915273cf6bb5389c92bdda8a3747ddb454cb7a64626c63815273bb4cdb9cbd36b01bd1cbaebf2de08d9173bc095c60208083018290526000919091527f83d07b5fe96ee588099d0e3de55b8ca5e29ae6542be59f4fa406e16a1e183e59905262000249907f999cf18472a49b97bbe22cbfe018991c6e5dc7a44bd052ea5cf6d8cfbf3be3c190600262000252565b505050620002dd565b828054828255906000526020600020908101928215620002aa579160200282015b82811115620002aa57825182546001600160a01b0319166001600160a01b0390911617825560209092019160019091019062000273565b50620002b8929150620002bc565b5090565b5b80821115620002b85780546001600160a01b0319168155600101620002bd565b61135380620002ed6000396000f3fe608060405234801561001057600080fd5b50600436106101005760003560e01c8063808d6d9e11610097578063975057e711610066578063975057e7146102c5578063b62e4c92146102cd578063dce17484146102d5578063ec362d4a146102dd57610100565b8063808d6d9e14610235578063841af2441461026b5780638d72647e146102975780639137c1a71461029f57610100565b806340c8e2db116100d357806340c8e2db146101415780634e79ed3c146101ff5780635aa6e675146102075780637764b4d21461020f57610100565b806301069692146101055780632f48ab7d14610129578063327107f71461013157806336e9332d14610139575b600080fd5b61010d6102e5565b604080516001600160a01b039092168252519081900360200190f35b61010d6102fd565b61010d610315565b61010d610324565b6101fd6004803603606081101561015757600080fd5b6001600160a01b03823581169260208101359091169181019060608101604082013564010000000081111561018b57600080fd5b82018360208201111561019d57600080fd5b803590602001918460208302840111640100000000831117156101bf57600080fd5b919080806020026020016040519081016040528093929190818152602001838360200280828437600092019190915250929550610333945050505050565b005b61010d6104f2565b61010d61050a565b6101fd6004803603602081101561022557600080fd5b50356001600160a01b031661058a565b61010d6004803603606081101561024b57600080fd5b506001600160a01b0381358116916020810135909116906040013561079b565b6101fd6004803603604081101561028157600080fd5b506001600160a01b0381351690602001356107dd565b61010d6109c7565b6101fd600480360360208110156102b557600080fd5b50356001600160a01b03166109df565b61010d610b15565b61010d610b24565b61010d610b3c565b61010d610b54565b7305ff2b0db69458a0750badebc4f9e13add608c7f81565b7355d398326f99059ff775485246999027b319795581565b6003546001600160a01b031681565b6001546001600160a01b031681565b600054604080516337b87c3960e21b815233600482015290516001600160a01b039092169163dee1f0e491602480820192602092909190829003018186803b15801561037e57600080fd5b505afa158015610392573d6000803e3d6000fd5b505050506040513d60208110156103a857600080fd5b50516103ec576040805162461bcd60e51b815260206004820152600e60248201526d4e6f7420676f7665726e616e636560901b604482015290519081900360640190fd5b806000815181106103f957fe5b60200260200101516001600160a01b0316836001600160a01b0316146104505760405162461bcd60e51b815260040180806020018281038252603f815260200180611211603f913960400191505060405180910390fd5b8060018251038151811061046057fe5b60200260200101516001600160a01b0316826001600160a01b0316146104b75760405162461bcd60e51b815260040180806020018281038252603c815260200180611250603c913960400191505060405180910390fd5b6001600160a01b038084166000908152600260209081526040808320938616835292815291902082516104ec9284019061118c565b50505050565b73cf6bb5389c92bdda8a3747ddb454cb7a64626c6381565b60008060009054906101000a90046001600160a01b03166001600160a01b0316635aa6e6756040518163ffffffff1660e01b815260040160206040518083038186803b15801561055957600080fd5b505afa15801561056d573d6000803e3d6000fd5b505050506040513d602081101561058357600080fd5b5051905090565b600054604080516337b87c3960e21b815233600482015290516001600160a01b039092169163dee1f0e491602480820192602092909190829003018186803b1580156105d557600080fd5b505afa1580156105e9573d6000803e3d6000fd5b505050506040513d60208110156105ff57600080fd5b5051610643576040805162461bcd60e51b815260206004820152600e60248201526d4e6f7420676f7665726e616e636560901b604482015290519081900360640190fd5b806001600160a01b031663f7c618c16040518163ffffffff1660e01b815260040160206040518083038186803b15801561067c57600080fd5b505afa158015610690573d6000803e3d6000fd5b505050506040513d60208110156106a657600080fd5b50516001600160a01b031673bb4cdb9cbd36b01bd1cbaebf2de08d9173bc095c14610718576040805162461bcd60e51b815260206004820152601e60248201527f526577617264706f6f6c277320746f6b656e206973206e6f742057424e420000604482015290519081900360640190fd5b600480546001600160a01b038084166001600160a01b031992831681179093556003805490921673bb4cdb9cbd36b01bd1cbaebf2de08d9173bc095c179182905560408051929091168252602082019290925281517f250f0cc7fc2ed10e8df5e112b69b17c584e0a8b07f66ffe24a5d03e1731193ca929181900390910190a150565b600260205282600052604060002060205281600052604060002081815481106107c057fe5b6000918252602090912001546001600160a01b0316925083915050565b60035481906001600160a01b03166107f557506109c3565b6001600160a01b03831673bb4cdb9cbd36b01bd1cbaebf2de08d9173bc095c141561081f576109c1565b6001600160a01b038084166000908152600260209081526040808320600180549095168452909152902054111561098a576108656001600160a01b038416333084610b63565b6000836001600160a01b03166370a08231306040518263ffffffff1660e01b815260040180826001600160a01b0316815260200191505060206040518083038186803b1580156108b457600080fd5b505afa1580156108c8573d6000803e3d6000fd5b505050506040513d60208110156108de57600080fd5b505190506109018473bb4cdb9cbd36b01bd1cbaebf2de08d9173bc095c83610bbd565b604080516370a0823160e01b8152306004820152905160009173bb4cdb9cbd36b01bd1cbaebf2de08d9173bc095c916370a0823191602480820192602092909190829003018186803b15801561095657600080fd5b505afa15801561096a573d6000803e3d6000fd5b505050506040513d602081101561098057600080fd5b506109c192505050565b60405162461bcd60e51b81526004018080602001828103825260328152602001806112ec6032913960400191505060405180910390fd5b505b5050565b73bb4cdb9cbd36b01bd1cbaebf2de08d9173bc095c81565b600054604080516337b87c3960e21b815233600482015290516001600160a01b039092169163dee1f0e491602480820192602092909190829003018186803b158015610a2a57600080fd5b505afa158015610a3e573d6000803e3d6000fd5b505050506040513d6020811015610a5457600080fd5b5051610a98576040805162461bcd60e51b815260206004820152600e60248201526d4e6f7420676f7665726e616e636560901b604482015290519081900360640190fd5b6001600160a01b038116610af3576040805162461bcd60e51b815260206004820152601e60248201527f6e65772073746f726167652073686f756c646e277420626520656d7074790000604482015290519081900360640190fd5b600080546001600160a01b0319166001600160a01b0392909216919091179055565b6000546001600160a01b031681565b734bd17003473389a42daf6a0a729f6fdb328bbbd781565b730e09fabb73bd3ade0a17ecc321fd13a19e81ce8281565b6004546001600160a01b031681565b604080516001600160a01b0380861660248301528416604482015260648082018490528251808303909101815260849091019091526020810180516001600160e01b03166323b872dd60e01b1790526104ec908590610dcd565b80156109c157610bec6001600160a01b0384167305ff2b0db69458a0750badebc4f9e13add608c7f6000610e7e565b610c146001600160a01b0384167305ff2b0db69458a0750badebc4f9e13add608c7f83610e7e565b6001600160a01b038381166000908152600260209081526040808320938616835292905281812091516338ed173960e01b815260048101848152602482018390523060648301819052426084840181905260a060448501908152865460a486018190527305ff2b0db69458a0750badebc4f9e13add608c7f976338ed1739978a97909691959493919260c49091019086908015610cda57602002820191906000526020600020905b81546001600160a01b03168152600190910190602001808311610cbc575b50509650505050505050600060405180830381600087803b158015610cfe57600080fd5b505af1158015610d12573d6000803e3d6000fd5b505050506040513d6000823e601f3d908101601f191682016040526020811015610d3b57600080fd5b8101908080516040519392919084640100000000821115610d5b57600080fd5b908301906020820185811115610d7057600080fd5b8251866020820283011164010000000082111715610d8d57600080fd5b82525081516020918201928201910280838360005b83811015610dba578181015183820152602001610da2565b5050505090500160405250505050505050565b6060610e22826040518060400160405280602081526020017f5361666542455032303a206c6f772d6c6576656c2063616c6c206661696c6564815250856001600160a01b0316610f919092919063ffffffff16565b8051909150156109c157808060200190516020811015610e4157600080fd5b50516109c15760405162461bcd60e51b815260040180806020018281038252602a81526020018061128c602a913960400191505060405180910390fd5b801580610f04575060408051636eb1769f60e11b81523060048201526001600160a01b03848116602483015291519185169163dd62ed3e91604480820192602092909190829003018186803b158015610ed657600080fd5b505afa158015610eea573d6000803e3d6000fd5b505050506040513d6020811015610f0057600080fd5b5051155b610f3f5760405162461bcd60e51b81526004018080602001828103825260368152602001806112b66036913960400191505060405180910390fd5b604080516001600160a01b038416602482015260448082018490528251808303909101815260649091019091526020810180516001600160e01b031663095ea7b360e01b1790526109c1908490610dcd565b6060610fa08484600085610fa8565b949350505050565b6060610fb385611153565b611004576040805162461bcd60e51b815260206004820152601d60248201527f416464726573733a2063616c6c20746f206e6f6e2d636f6e7472616374000000604482015290519081900360640190fd5b60006060866001600160a01b031685876040518082805190602001908083835b602083106110435780518252601f199092019160209182019101611024565b6001836020036101000a03801982511681845116808217855250505050505090500191505060006040518083038185875af1925050503d80600081146110a5576040519150601f19603f3d011682016040523d82523d6000602084013e6110aa565b606091505b509150915081156110be579150610fa09050565b8051156110ce5780518082602001fd5b8360405162461bcd60e51b81526004018080602001828103825283818151815260200191508051906020019080838360005b83811015611118578181015183820152602001611100565b50505050905090810190601f1680156111455780820380516001836020036101000a031916815260200191505b509250505060405180910390fd5b6000813f7fc5d2460186f7233c927e7db2dcc703c0e500b653ca82273b7bfad8045d85a470818114801590610fa0575050151592915050565b8280548282559060005260206000209081019282156111e1579160200282015b828111156111e157825182546001600160a01b0319166001600160a01b039091161782556020909201916001909101906111ac565b506111ed9291506111f1565b5090565b5b808211156111ed5780546001600160a01b03191681556001016111f256fe54686520666972737420746f6b656e206f66207468652050616e63616b657377617020726f757465206d757374206265207468652066726f6d20746f6b656e546865206c61737420746f6b656e206f66207468652050616e63616b657377617020726f757465206d7573742062652074686520746f20746f6b656e5361666542455032303a204245503230206f7065726174696f6e20646964206e6f7420737563636565645361666542455032303a20617070726f76652066726f6d206e6f6e2d7a65726f20746f206e6f6e2d7a65726f20616c6c6f77616e6365466565526577617264466f727761726465723a206c69717569646174696f6e207061746820646f65736e2774206578697374a26469706673582212208c753b1253caed92532777b0e986591323d77db549a3f3c6a6eebae3d35703e764736f6c634300060c0033",
  "devdoc": {
    "kind": "dev",
    "methods": {},
    "version": 1
  },
  "userdoc": {
    "kind": "user",
    "methods": {
      "setConversionPath(address,address,address[])": {
        "notice": "Sets the path for swapping tokens to the to address The to address is not validated to match the targetToken, so that we could first update the paths, and then, set the new target"
      }
    },
    "version": 1
  },
  "storageLayout": {
    "storage": [
      {
        "astId": 4805,
        "contract": "contracts/lib/@harvest-finance/FeeRewardForwarder.sol:FeeRewardForwarder",
        "label": "store",
        "offset": 0,
        "slot": "0",
        "type": "t_contract(Storage)6226"
      },
      {
        "astId": 4490,
        "contract": "contracts/lib/@harvest-finance/FeeRewardForwarder.sol:FeeRewardForwarder",
        "label": "farm",
        "offset": 0,
        "slot": "1",
        "type": "t_address"
      },
      {
        "astId": 4527,
        "contract": "contracts/lib/@harvest-finance/FeeRewardForwarder.sol:FeeRewardForwarder",
        "label": "pancakeswapRoutes",
        "offset": 0,
        "slot": "2",
        "type": "t_mapping(t_address,t_mapping(t_address,t_array(t_address)dyn_storage))"
      },
      {
        "astId": 4529,
        "contract": "contracts/lib/@harvest-finance/FeeRewardForwarder.sol:FeeRewardForwarder",
        "label": "targetToken",
        "offset": 0,
        "slot": "3",
        "type": "t_address"
      },
      {
        "astId": 4531,
        "contract": "contracts/lib/@harvest-finance/FeeRewardForwarder.sol:FeeRewardForwarder",
        "label": "profitSharingPool",
        "offset": 0,
        "slot": "4",
        "type": "t_address"
      }
    ],
    "types": {
      "t_address": {
        "encoding": "inplace",
        "label": "address",
        "numberOfBytes": "20"
      },
      "t_array(t_address)dyn_storage": {
        "base": "t_address",
        "encoding": "dynamic_array",
        "label": "address[]",
        "numberOfBytes": "32"
      },
      "t_contract(Storage)6226": {
        "encoding": "inplace",
        "label": "contract Storage",
        "numberOfBytes": "20"
      },
      "t_mapping(t_address,t_array(t_address)dyn_storage)": {
        "encoding": "mapping",
        "key": "t_address",
        "label": "mapping(address => address[])",
        "numberOfBytes": "32",
        "value": "t_array(t_address)dyn_storage"
      },
      "t_mapping(t_address,t_mapping(t_address,t_array(t_address)dyn_storage))": {
        "encoding": "mapping",
        "key": "t_address",
        "label": "mapping(address => mapping(address => address[]))",
        "numberOfBytes": "32",
        "value": "t_mapping(t_address,t_array(t_address)dyn_storage)"
      }
    }
  }
}