{
  "address": "0x4ed7c70F96B99c776995fB64377f0d4aB3B0e1C1",
  "abi": [
    {
      "inputs": [
        {
          "internalType": "address",
          "name": "_storage",
          "type": "address"
        },
        {
          "internalType": "address",
          "name": "_farm",
          "type": "address"
        }
      ],
      "stateMutability": "nonpayable",
      "type": "constructor"
    },
    {
      "anonymous": false,
      "inputs": [
        {
          "indexed": false,
          "internalType": "address",
          "name": "token",
          "type": "address"
        },
        {
          "indexed": false,
          "internalType": "address",
          "name": "pool",
          "type": "address"
        }
      ],
      "name": "TokenPoolSet",
      "type": "event"
    },
    {
      "inputs": [],
      "name": "farm",
      "outputs": [
        {
          "internalType": "address",
          "name": "",
          "type": "address"
        }
      ],
      "stateMutability": "view",
      "type": "function"
    },
    {
      "inputs": [],
      "name": "governance",
      "outputs": [
        {
          "internalType": "address",
          "name": "",
          "type": "address"
        }
      ],
      "stateMutability": "view",
      "type": "function"
    },
    {
      "inputs": [],
      "name": "pancakeswapRouterV2",
      "outputs": [
        {
          "internalType": "address",
          "name": "",
          "type": "address"
        }
      ],
      "stateMutability": "view",
      "type": "function"
    },
    {
      "inputs": [
        {
          "internalType": "address",
          "name": "",
          "type": "address"
        },
        {
          "internalType": "address",
          "name": "",
          "type": "address"
        },
        {
          "internalType": "uint256",
          "name": "",
          "type": "uint256"
        }
      ],
      "name": "pancakeswapRoutes",
      "outputs": [
        {
          "internalType": "address",
          "name": "",
          "type": "address"
        }
      ],
      "stateMutability": "view",
      "type": "function"
    },
    {
      "inputs": [
        {
          "internalType": "address",
          "name": "_token",
          "type": "address"
        },
        {
          "internalType": "uint256",
          "name": "_amount",
          "type": "uint256"
        }
      ],
      "name": "poolNotifyFixedTarget",
      "outputs": [],
      "stateMutability": "nonpayable",
      "type": "function"
    },
    {
      "inputs": [],
      "name": "profitSharingPool",
      "outputs": [
        {
          "internalType": "address",
          "name": "",
          "type": "address"
        }
      ],
      "stateMutability": "view",
      "type": "function"
    },
    {
      "inputs": [
        {
          "internalType": "address",
          "name": "from",
          "type": "address"
        },
        {
          "internalType": "address",
          "name": "to",
          "type": "address"
        },
        {
          "internalType": "address[]",
          "name": "_pancakeswapRoute",
          "type": "address[]"
        }
      ],
      "name": "setConversionPath",
      "outputs": [],
      "stateMutability": "nonpayable",
      "type": "function"
    },
    {
      "inputs": [
        {
          "internalType": "address",
          "name": "_store",
          "type": "address"
        }
      ],
      "name": "setStorage",
      "outputs": [],
      "stateMutability": "nonpayable",
      "type": "function"
    },
    {
      "inputs": [
        {
          "internalType": "address",
          "name": "_pool",
          "type": "address"
        }
      ],
      "name": "setTokenPool",
      "outputs": [],
      "stateMutability": "nonpayable",
      "type": "function"
    },
    {
      "inputs": [],
      "name": "store",
      "outputs": [
        {
          "internalType": "contract Storage",
          "name": "",
          "type": "address"
        }
      ],
      "stateMutability": "view",
      "type": "function"
    },
    {
      "inputs": [],
      "name": "targetToken",
      "outputs": [
        {
          "internalType": "address",
          "name": "",
          "type": "address"
        }
      ],
      "stateMutability": "view",
      "type": "function"
    }
  ],
  "transactionHash": "0xf867f81b0e59e1ab23d301f77ce69aa80738e49846841cbff5600210074217e1",
  "args": [
    "0xc6e7DF5E7b4f2A278906862b61205850344D4e7d",
    "0x59b670e9fA9D0A427751Af201D676719a970857b"
  ],
  "solcInputHash": "1207e747733a6e2d2dab2e12a565ae77",
  "bytecode": "0x608060405234801561001057600080fd5b5060405161144a38038061144a8339818101604052604081101561003357600080fd5b508051602090910151816001600160a01b038116610098576040805162461bcd60e51b815260206004820152601e60248201527f6e65772073746f726167652073686f756c646e277420626520656d7074790000604482015290519081900360640190fd5b600080546001600160a01b0319166001600160a01b0392831617905581166100fb576040805162461bcd60e51b815260206004820152601160248201527017d9985c9b481b9bdd081919599a5b9959607a1b604482015290519081900360640190fd5b600180546001600160a01b0319166001600160a01b03929092169190911790555061131f8061012b6000396000f3fe608060405234801561001057600080fd5b50600436106100a95760003560e01c80637764b4d2116100715780637764b4d2146101a8578063808d6d9e146101ce578063841af244146102045780639137c1a714610230578063975057e714610256578063ec362d4a1461025e576100a9565b806301069692146100ae578063327107f7146100d257806336e9332d146100da57806340c8e2db146100e25780635aa6e675146101a0575b600080fd5b6100b6610266565b604080516001600160a01b039092168252519081900360200190f35b6100b661026b565b6100b661027a565b61019e600480360360608110156100f857600080fd5b6001600160a01b03823581169260208101359091169181019060608101604082013564010000000081111561012c57600080fd5b82018360208201111561013e57600080fd5b8035906020019184602083028401116401000000008311171561016057600080fd5b919080806020026020016040519081016040528093929190818152602001838360200280828437600092019190915250929550610289945050505050565b005b6100b6610448565b61019e600480360360208110156101be57600080fd5b50356001600160a01b03166104c8565b6100b6600480360360608110156101e457600080fd5b506001600160a01b038135811691602081013590911690604001356106bb565b61019e6004803603604081101561021a57600080fd5b506001600160a01b0381351690602001356106fd565b61019e6004803603602081101561024657600080fd5b50356001600160a01b03166109c9565b6100b6610aff565b6100b6610b0e565b600081565b6003546001600160a01b031681565b6001546001600160a01b031681565b600054604080516337b87c3960e21b815233600482015290516001600160a01b039092169163dee1f0e491602480820192602092909190829003018186803b1580156102d457600080fd5b505afa1580156102e8573d6000803e3d6000fd5b505050506040513d60208110156102fe57600080fd5b5051610342576040805162461bcd60e51b815260206004820152600e60248201526d4e6f7420676f7665726e616e636560901b604482015290519081900360640190fd5b8060008151811061034f57fe5b60200260200101516001600160a01b0316836001600160a01b0316146103a65760405162461bcd60e51b815260040180806020018281038252603f8152602001806111dd603f913960400191505060405180910390fd5b806001825103815181106103b657fe5b60200260200101516001600160a01b0316826001600160a01b03161461040d5760405162461bcd60e51b815260040180806020018281038252603c81526020018061121c603c913960400191505060405180910390fd5b6001600160a01b0380841660009081526002602090815260408083209386168352928152919020825161044292840190611158565b50505050565b60008060009054906101000a90046001600160a01b03166001600160a01b0316635aa6e6756040518163ffffffff1660e01b815260040160206040518083038186803b15801561049757600080fd5b505afa1580156104ab573d6000803e3d6000fd5b505050506040513d60208110156104c157600080fd5b5051905090565b600054604080516337b87c3960e21b815233600482015290516001600160a01b039092169163dee1f0e491602480820192602092909190829003018186803b15801561051357600080fd5b505afa158015610527573d6000803e3d6000fd5b505050506040513d602081101561053d57600080fd5b5051610581576040805162461bcd60e51b815260206004820152600e60248201526d4e6f7420676f7665726e616e636560901b604482015290519081900360640190fd5b806001600160a01b031663f7c618c16040518163ffffffff1660e01b815260040160206040518083038186803b1580156105ba57600080fd5b505afa1580156105ce573d6000803e3d6000fd5b505050506040513d60208110156105e457600080fd5b50516001546001600160a01b03908116911614610648576040805162461bcd60e51b815260206004820152601e60248201527f526577617264706f6f6c277320746f6b656e206973206e6f74204641524d0000604482015290519081900360640190fd5b600480546001600160a01b03199081166001600160a01b038481169182179093556001546003805491851691909316179182905560408051929093168252602082015281517f250f0cc7fc2ed10e8df5e112b69b17c584e0a8b07f66ffe24a5d03e1731193ca929181900390910190a150565b600260205282600052604060002060205281600052604060002081815481106106e057fe5b6000918252602090912001546001600160a01b0316925083915050565b60035481906001600160a01b031661071557506109c5565b6001546001600160a01b03848116911614156107af57600454610747906001600160a01b038581169133911685610b1d565b6004805460408051633c6b16ab60e01b8152928301859052516001600160a01b0390911691633c6b16ab91602480830192600092919082900301818387803b15801561079257600080fd5b505af11580156107a6573d6000803e3d6000fd5b505050506109c3565b6001600160a01b038084166000908152600260209081526040808320600180549095168452909152902054111561098c576107f56001600160a01b038416333084610b1d565b6000836001600160a01b03166370a08231306040518263ffffffff1660e01b815260040180826001600160a01b0316815260200191505060206040518083038186803b15801561084457600080fd5b505afa158015610858573d6000803e3d6000fd5b505050506040513d602081101561086e57600080fd5b505160015490915061088b9085906001600160a01b031683610b77565b600154604080516370a0823160e01b815230600482015290516000926001600160a01b0316916370a08231916024808301926020929190829003018186803b1580156108d657600080fd5b505afa1580156108ea573d6000803e3d6000fd5b505050506040513d602081101561090057600080fd5b5051600454600154919250610922916001600160a01b03908116911683610d4b565b6004805460408051633c6b16ab60e01b8152928301849052516001600160a01b0390911691633c6b16ab91602480830192600092919082900301818387803b15801561096d57600080fd5b505af1158015610981573d6000803e3d6000fd5b5050505050506109c3565b60405162461bcd60e51b81526004018080602001828103825260328152602001806112b86032913960400191505060405180910390fd5b505b5050565b600054604080516337b87c3960e21b815233600482015290516001600160a01b039092169163dee1f0e491602480820192602092909190829003018186803b158015610a1457600080fd5b505afa158015610a28573d6000803e3d6000fd5b505050506040513d6020811015610a3e57600080fd5b5051610a82576040805162461bcd60e51b815260206004820152600e60248201526d4e6f7420676f7665726e616e636560901b604482015290519081900360640190fd5b6001600160a01b038116610add576040805162461bcd60e51b815260206004820152601e60248201527f6e65772073746f726167652073686f756c646e277420626520656d7074790000604482015290519081900360640190fd5b600080546001600160a01b0319166001600160a01b0392909216919091179055565b6000546001600160a01b031681565b6004546001600160a01b031681565b604080516001600160a01b0380861660248301528416604482015260648082018490528251808303909101815260849091019091526020810180516001600160e01b03166323b872dd60e01b179052610442908590610d99565b80156109c357610b926001600160a01b038416600080610e4a565b610ba76001600160a01b038416600083610e4a565b6001600160a01b038381166000908152600260209081526040808320938616835292905281812091516338ed173960e01b8152600481018481526001602483018190523060648401819052426084850181905260a060448601908152875460a4870181905296976338ed1739978a979596919591929160c4019086908015610c5857602002820191906000526020600020905b81546001600160a01b03168152600190910190602001808311610c3a575b50509650505050505050600060405180830381600087803b158015610c7c57600080fd5b505af1158015610c90573d6000803e3d6000fd5b505050506040513d6000823e601f3d908101601f191682016040526020811015610cb957600080fd5b8101908080516040519392919084640100000000821115610cd957600080fd5b908301906020820185811115610cee57600080fd5b8251866020820283011164010000000082111715610d0b57600080fd5b82525081516020918201928201910280838360005b83811015610d38578181015183820152602001610d20565b5050505090500160405250505050505050565b604080516001600160a01b038416602482015260448082018490528251808303909101815260649091019091526020810180516001600160e01b031663a9059cbb60e01b1790526109c39084905b6060610dee826040518060400160405280602081526020017f5361666542455032303a206c6f772d6c6576656c2063616c6c206661696c6564815250856001600160a01b0316610f5d9092919063ffffffff16565b8051909150156109c357808060200190516020811015610e0d57600080fd5b50516109c35760405162461bcd60e51b815260040180806020018281038252602a815260200180611258602a913960400191505060405180910390fd5b801580610ed0575060408051636eb1769f60e11b81523060048201526001600160a01b03848116602483015291519185169163dd62ed3e91604480820192602092909190829003018186803b158015610ea257600080fd5b505afa158015610eb6573d6000803e3d6000fd5b505050506040513d6020811015610ecc57600080fd5b5051155b610f0b5760405162461bcd60e51b81526004018080602001828103825260368152602001806112826036913960400191505060405180910390fd5b604080516001600160a01b038416602482015260448082018490528251808303909101815260649091019091526020810180516001600160e01b031663095ea7b360e01b1790526109c3908490610d99565b6060610f6c8484600085610f74565b949350505050565b6060610f7f8561111f565b610fd0576040805162461bcd60e51b815260206004820152601d60248201527f416464726573733a2063616c6c20746f206e6f6e2d636f6e7472616374000000604482015290519081900360640190fd5b60006060866001600160a01b031685876040518082805190602001908083835b6020831061100f5780518252601f199092019160209182019101610ff0565b6001836020036101000a03801982511681845116808217855250505050505090500191505060006040518083038185875af1925050503d8060008114611071576040519150601f19603f3d011682016040523d82523d6000602084013e611076565b606091505b5091509150811561108a579150610f6c9050565b80511561109a5780518082602001fd5b8360405162461bcd60e51b81526004018080602001828103825283818151815260200191508051906020019080838360005b838110156110e45781810151838201526020016110cc565b50505050905090810190601f1680156111115780820380516001836020036101000a031916815260200191505b509250505060405180910390fd5b6000813f7fc5d2460186f7233c927e7db2dcc703c0e500b653ca82273b7bfad8045d85a470818114801590610f6c575050151592915050565b8280548282559060005260206000209081019282156111ad579160200282015b828111156111ad57825182546001600160a01b0319166001600160a01b03909116178255602090920191600190910190611178565b506111b99291506111bd565b5090565b5b808211156111b95780546001600160a01b03191681556001016111be56fe54686520666972737420746f6b656e206f66207468652050616e63616b657377617020726f757465206d757374206265207468652066726f6d20746f6b656e546865206c61737420746f6b656e206f66207468652050616e63616b657377617020726f757465206d7573742062652074686520746f20746f6b656e5361666542455032303a204245503230206f7065726174696f6e20646964206e6f7420737563636565645361666542455032303a20617070726f76652066726f6d206e6f6e2d7a65726f20746f206e6f6e2d7a65726f20616c6c6f77616e6365466565526577617264466f727761726465723a206c69717569646174696f6e207061746820646f65736e2774206578697374a2646970667358221220f2bcabf5958cf498646a9a22509894c2b1f6718cc871d8c65d7230ac8f8202f664736f6c634300060c0033",
  "devdoc": {
    "kind": "dev",
    "methods": {},
    "version": 1
  },
  "userdoc": {
    "kind": "user",
    "methods": {
      "setConversionPath(address,address,address[])": {
        "notice": "Sets the path for swapping tokens to the to address The to address is not validated to match the targetToken, so that we could first update the paths, and then, set the new target"
      }
    },
    "version": 1
  },
  "storageLayout": {
    "storage": [
      {
        "astId": 4787,
        "contract": "contracts/lib/@harvest-finance/FeeRewardForwarder.sol:FeeRewardForwarder",
        "label": "store",
        "offset": 0,
        "slot": "0",
        "type": "t_contract(Storage)5323"
      },
      {
        "astId": 4490,
        "contract": "contracts/lib/@harvest-finance/FeeRewardForwarder.sol:FeeRewardForwarder",
        "label": "farm",
        "offset": 0,
        "slot": "1",
        "type": "t_address"
      },
      {
        "astId": 4497,
        "contract": "contracts/lib/@harvest-finance/FeeRewardForwarder.sol:FeeRewardForwarder",
        "label": "pancakeswapRoutes",
        "offset": 0,
        "slot": "2",
        "type": "t_mapping(t_address,t_mapping(t_address,t_array(t_address)dyn_storage))"
      },
      {
        "astId": 4499,
        "contract": "contracts/lib/@harvest-finance/FeeRewardForwarder.sol:FeeRewardForwarder",
        "label": "targetToken",
        "offset": 0,
        "slot": "3",
        "type": "t_address"
      },
      {
        "astId": 4501,
        "contract": "contracts/lib/@harvest-finance/FeeRewardForwarder.sol:FeeRewardForwarder",
        "label": "profitSharingPool",
        "offset": 0,
        "slot": "4",
        "type": "t_address"
      }
    ],
    "types": {
      "t_address": {
        "encoding": "inplace",
        "label": "address",
        "numberOfBytes": "20"
      },
      "t_array(t_address)dyn_storage": {
        "base": "t_address",
        "encoding": "dynamic_array",
        "label": "address[]",
        "numberOfBytes": "32"
      },
      "t_contract(Storage)5323": {
        "encoding": "inplace",
        "label": "contract Storage",
        "numberOfBytes": "20"
      },
      "t_mapping(t_address,t_array(t_address)dyn_storage)": {
        "encoding": "mapping",
        "key": "t_address",
        "label": "mapping(address => address[])",
        "numberOfBytes": "32",
        "value": "t_array(t_address)dyn_storage"
      },
      "t_mapping(t_address,t_mapping(t_address,t_array(t_address)dyn_storage))": {
        "encoding": "mapping",
        "key": "t_address",
        "label": "mapping(address => mapping(address => address[]))",
        "numberOfBytes": "32",
        "value": "t_mapping(t_address,t_array(t_address)dyn_storage)"
      }
    }
  }
}