{
  "address": "0xc6e7DF5E7b4f2A278906862b61205850344D4e7d",
  "abi": [
    {
      "inputs": [],
      "stateMutability": "nonpayable",
      "type": "constructor"
    },
    {
      "inputs": [],
      "name": "controller",
      "outputs": [
        {
          "internalType": "address",
          "name": "",
          "type": "address"
        }
      ],
      "stateMutability": "view",
      "type": "function"
    },
    {
      "inputs": [],
      "name": "governance",
      "outputs": [
        {
          "internalType": "address",
          "name": "",
          "type": "address"
        }
      ],
      "stateMutability": "view",
      "type": "function"
    },
    {
      "inputs": [
        {
          "internalType": "address",
          "name": "account",
          "type": "address"
        }
      ],
      "name": "isController",
      "outputs": [
        {
          "internalType": "bool",
          "name": "",
          "type": "bool"
        }
      ],
      "stateMutability": "view",
      "type": "function"
    },
    {
      "inputs": [
        {
          "internalType": "address",
          "name": "account",
          "type": "address"
        }
      ],
      "name": "isGovernance",
      "outputs": [
        {
          "internalType": "bool",
          "name": "",
          "type": "bool"
        }
      ],
      "stateMutability": "view",
      "type": "function"
    },
    {
      "inputs": [
        {
          "internalType": "address",
          "name": "_controller",
          "type": "address"
        }
      ],
      "name": "setController",
      "outputs": [],
      "stateMutability": "nonpayable",
      "type": "function"
    },
    {
      "inputs": [
        {
          "internalType": "address",
          "name": "_governance",
          "type": "address"
        }
      ],
      "name": "setGovernance",
      "outputs": [],
      "stateMutability": "nonpayable",
      "type": "function"
    }
  ],
  "transactionHash": "0x84f9ff436a836df499d15d744b972e544bfb7dda3e64af1b655cb0c4cfe2dda9",
  "args": [],
  "solcInputHash": "57f9f263b44ce41c9bd50662a3b0194b",
  "bytecode": "0x608060405234801561001057600080fd5b50600080546001600160a01b03191633179055610363806100326000396000f3fe608060405234801561001057600080fd5b50600436106100625760003560e01c80635aa6e6751461006757806392eefe9b1461008b578063ab033ea9146100b3578063b429afeb146100d9578063dee1f0e414610113578063f77c479114610139575b600080fd5b61006f610141565b604080516001600160a01b039092168252519081900360200190f35b6100b1600480360360208110156100a157600080fd5b50356001600160a01b0316610150565b005b6100b1600480360360208110156100c957600080fd5b50356001600160a01b0316610202565b6100ff600480360360208110156100ef57600080fd5b50356001600160a01b03166102b4565b604080519115158252519081900360200190f35b6100ff6004803603602081101561012957600080fd5b50356001600160a01b03166102c8565b61006f6102dc565b6000546001600160a01b031681565b610159336102c8565b61019b576040805162461bcd60e51b815260206004820152600e60248201526d4e6f7420676f7665726e616e636560901b604482015290519081900360640190fd5b6001600160a01b0381166101e05760405162461bcd60e51b815260040180806020018281038252602181526020018061030d6021913960400191505060405180910390fd5b600180546001600160a01b0319166001600160a01b0392909216919091179055565b61020b336102c8565b61024d576040805162461bcd60e51b815260206004820152600e60248201526d4e6f7420676f7665726e616e636560901b604482015290519081900360640190fd5b6001600160a01b0381166102925760405162461bcd60e51b81526004018080602001828103825260218152602001806102ec6021913960400191505060405180910390fd5b600080546001600160a01b0319166001600160a01b0392909216919091179055565b6001546001600160a01b0390811691161490565b6000546001600160a01b0390811691161490565b6001546001600160a01b03168156fe6e657720676f7665726e616e63652073686f756c646e277420626520656d7074796e657720636f6e74726f6c6c65722073686f756c646e277420626520656d707479a2646970667358221220396c446f883e7d61d59fa8b157e8a7a3ae9f9905c276d2b4e957d19b5494173064736f6c634300060c0033",
  "devdoc": {
    "kind": "dev",
    "methods": {},
    "version": 1
  },
  "userdoc": {
    "kind": "user",
    "methods": {},
    "version": 1
  },
  "storageLayout": {
    "storage": [
      {
        "astId": 6134,
        "contract": "contracts/lib/@harvest-finance/Storage.sol:Storage",
        "label": "governance",
        "offset": 0,
        "slot": "0",
        "type": "t_address"
      },
      {
        "astId": 6136,
        "contract": "contracts/lib/@harvest-finance/Storage.sol:Storage",
        "label": "controller",
        "offset": 0,
        "slot": "1",
        "type": "t_address"
      }
    ],
    "types": {
      "t_address": {
        "encoding": "inplace",
        "label": "address",
        "numberOfBytes": "20"
      }
    }
  }
}