{
  "address": "0x399C85c91Ad7Cdea4B9f8bd435EC2e1d03888801",
  "abi": [
    {
      "inputs": [
        {
          "internalType": "address",
          "name": "_storage",
          "type": "address"
        },
        {
          "internalType": "address",
          "name": "_feeRewardForwarder",
          "type": "address"
        }
      ],
      "stateMutability": "nonpayable",
      "type": "constructor"
    },
    {
      "anonymous": false,
      "inputs": [
        {
          "indexed": true,
          "internalType": "address",
          "name": "vault",
          "type": "address"
        },
        {
          "indexed": true,
          "internalType": "address",
          "name": "strategy",
          "type": "address"
        },
        {
          "indexed": false,
          "internalType": "uint256",
          "name": "oldSharePrice",
          "type": "uint256"
        },
        {
          "indexed": false,
          "internalType": "uint256",
          "name": "newSharePrice",
          "type": "uint256"
        },
        {
          "indexed": false,
          "internalType": "uint256",
          "name": "timestamp",
          "type": "uint256"
        }
      ],
      "name": "SharePriceChangeLog",
      "type": "event"
    },
    {
      "inputs": [
        {
          "internalType": "address",
          "name": "_worker",
          "type": "address"
        }
      ],
      "name": "addHardWorker",
      "outputs": [],
      "stateMutability": "nonpayable",
      "type": "function"
    },
    {
      "inputs": [
        {
          "internalType": "address",
          "name": "_target",
          "type": "address"
        }
      ],
      "name": "addToGreyList",
      "outputs": [],
      "stateMutability": "nonpayable",
      "type": "function"
    },
    {
      "inputs": [
        {
          "internalType": "address",
          "name": "_vault",
          "type": "address"
        },
        {
          "internalType": "address",
          "name": "_strategy",
          "type": "address"
        }
      ],
      "name": "addVaultAndStrategy",
      "outputs": [],
      "stateMutability": "nonpayable",
      "type": "function"
    },
    {
      "inputs": [
        {
          "internalType": "address",
          "name": "_vault",
          "type": "address"
        },
        {
          "internalType": "uint256",
          "name": "hint",
          "type": "uint256"
        },
        {
          "internalType": "uint256",
          "name": "deviationNumerator",
          "type": "uint256"
        },
        {
          "internalType": "uint256",
          "name": "deviationDenominator",
          "type": "uint256"
        }
      ],
      "name": "doHardWork",
      "outputs": [],
      "stateMutability": "nonpayable",
      "type": "function"
    },
    {
      "inputs": [],
      "name": "feeRewardForwarder",
      "outputs": [
        {
          "internalType": "address",
          "name": "",
          "type": "address"
        }
      ],
      "stateMutability": "view",
      "type": "function"
    },
    {
      "inputs": [
        {
          "internalType": "address",
          "name": "_vault",
          "type": "address"
        }
      ],
      "name": "getPricePerFullShare",
      "outputs": [
        {
          "internalType": "uint256",
          "name": "",
          "type": "uint256"
        }
      ],
      "stateMutability": "view",
      "type": "function"
    },
    {
      "inputs": [],
      "name": "governance",
      "outputs": [
        {
          "internalType": "address",
          "name": "",
          "type": "address"
        }
      ],
      "stateMutability": "view",
      "type": "function"
    },
    {
      "inputs": [
        {
          "internalType": "address",
          "name": "",
          "type": "address"
        }
      ],
      "name": "greyList",
      "outputs": [
        {
          "internalType": "bool",
          "name": "",
          "type": "bool"
        }
      ],
      "stateMutability": "view",
      "type": "function"
    },
    {
      "inputs": [],
      "name": "hardRewards",
      "outputs": [
        {
          "internalType": "contract HardRewards",
          "name": "",
          "type": "address"
        }
      ],
      "stateMutability": "view",
      "type": "function"
    },
    {
      "inputs": [
        {
          "internalType": "address",
          "name": "",
          "type": "address"
        }
      ],
      "name": "hardWorkers",
      "outputs": [
        {
          "internalType": "bool",
          "name": "",
          "type": "bool"
        }
      ],
      "stateMutability": "view",
      "type": "function"
    },
    {
      "inputs": [
        {
          "internalType": "address",
          "name": "_vault",
          "type": "address"
        }
      ],
      "name": "hasVault",
      "outputs": [
        {
          "internalType": "bool",
          "name": "",
          "type": "bool"
        }
      ],
      "stateMutability": "nonpayable",
      "type": "function"
    },
    {
      "inputs": [
        {
          "internalType": "address",
          "name": "underlying",
          "type": "address"
        },
        {
          "internalType": "uint256",
          "name": "fee",
          "type": "uint256"
        }
      ],
      "name": "notifyFee",
      "outputs": [],
      "stateMutability": "nonpayable",
      "type": "function"
    },
    {
      "inputs": [],
      "name": "profitSharingDenominator",
      "outputs": [
        {
          "internalType": "uint256",
          "name": "",
          "type": "uint256"
        }
      ],
      "stateMutability": "view",
      "type": "function"
    },
    {
      "inputs": [],
      "name": "profitSharingNumerator",
      "outputs": [
        {
          "internalType": "uint256",
          "name": "",
          "type": "uint256"
        }
      ],
      "stateMutability": "view",
      "type": "function"
    },
    {
      "inputs": [
        {
          "internalType": "address",
          "name": "_target",
          "type": "address"
        }
      ],
      "name": "removeFromGreyList",
      "outputs": [],
      "stateMutability": "nonpayable",
      "type": "function"
    },
    {
      "inputs": [
        {
          "internalType": "address",
          "name": "_worker",
          "type": "address"
        }
      ],
      "name": "removeHardWorker",
      "outputs": [],
      "stateMutability": "nonpayable",
      "type": "function"
    },
    {
      "inputs": [
        {
          "internalType": "address",
          "name": "_token",
          "type": "address"
        },
        {
          "internalType": "uint256",
          "name": "_amount",
          "type": "uint256"
        }
      ],
      "name": "salvage",
      "outputs": [],
      "stateMutability": "nonpayable",
      "type": "function"
    },
    {
      "inputs": [
        {
          "internalType": "address",
          "name": "_strategy",
          "type": "address"
        },
        {
          "internalType": "address",
          "name": "_token",
          "type": "address"
        },
        {
          "internalType": "uint256",
          "name": "_amount",
          "type": "uint256"
        }
      ],
      "name": "salvageStrategy",
      "outputs": [],
      "stateMutability": "nonpayable",
      "type": "function"
    },
    {
      "inputs": [
        {
          "internalType": "address",
          "name": "_feeRewardForwarder",
          "type": "address"
        }
      ],
      "name": "setFeeRewardForwarder",
      "outputs": [],
      "stateMutability": "nonpayable",
      "type": "function"
    },
    {
      "inputs": [
        {
          "internalType": "address",
          "name": "_hardRewards",
          "type": "address"
        }
      ],
      "name": "setHardRewards",
      "outputs": [],
      "stateMutability": "nonpayable",
      "type": "function"
    },
    {
      "inputs": [
        {
          "internalType": "address",
          "name": "_store",
          "type": "address"
        }
      ],
      "name": "setStorage",
      "outputs": [],
      "stateMutability": "nonpayable",
      "type": "function"
    },
    {
      "inputs": [
        {
          "internalType": "address",
          "name": "_vault",
          "type": "address"
        },
        {
          "internalType": "address",
          "name": "strategy",
          "type": "address"
        },
        {
          "internalType": "uint256",
          "name": "hint",
          "type": "uint256"
        },
        {
          "internalType": "uint256",
          "name": "deviationNumerator",
          "type": "uint256"
        },
        {
          "internalType": "uint256",
          "name": "deviationDenominator",
          "type": "uint256"
        }
      ],
      "name": "setStrategy",
      "outputs": [],
      "stateMutability": "nonpayable",
      "type": "function"
    },
    {
      "inputs": [],
      "name": "store",
      "outputs": [
        {
          "internalType": "contract Storage",
          "name": "",
          "type": "address"
        }
      ],
      "stateMutability": "view",
      "type": "function"
    },
    {
      "inputs": [
        {
          "internalType": "address",
          "name": "",
          "type": "address"
        }
      ],
      "name": "vaults",
      "outputs": [
        {
          "internalType": "bool",
          "name": "",
          "type": "bool"
        }
      ],
      "stateMutability": "view",
      "type": "function"
    },
    {
      "inputs": [
        {
          "internalType": "address",
          "name": "_vault",
          "type": "address"
        },
        {
          "internalType": "uint256",
          "name": "hint",
          "type": "uint256"
        },
        {
          "internalType": "uint256",
          "name": "deviationNumerator",
          "type": "uint256"
        },
        {
          "internalType": "uint256",
          "name": "deviationDenominator",
          "type": "uint256"
        }
      ],
      "name": "withdrawAll",
      "outputs": [],
      "stateMutability": "nonpayable",
      "type": "function"
    }
  ],
  "transactionHash": "0x89058c2a390eee213944e532c358f9c8da58c67cdbcc344182bc77471661841d",
  "args": [
    "0xff3b7e5Ff30fCd84CC2351f56F3e20397e54E52D",
    "0x314D178737D8F63a53f362a2145BBC2272537A02"
  ],
  "solcInputHash": "d10d7761ca3e74948997df5534ad1e07",
  "bytecode": "0x608060405234801561001057600080fd5b506040516125073803806125078339818101604052604081101561003357600080fd5b508051602090910151816001600160a01b038116610098576040805162461bcd60e51b815260206004820152601e60248201527f6e65772073746f726167652073686f756c646e277420626520656d7074790000604482015290519081900360640190fd5b600080546001600160a01b0319166001600160a01b0392831617905581166100f15760405162461bcd60e51b81526004018080602001828103825260268152602001806124e16026913960400191505060405180910390fd5b600180546001600160a01b0319166001600160a01b0392909216919091179055506123c0806101216000396000f3fe608060405234801561001057600080fd5b50600436106101735760003560e01c806358d94fbc116100de578063a622ee7c11610097578063b8393eaf11610071578063b8393eaf1461049a578063d0fc3e83146104c0578063ed32fa33146104c8578063f706bf28146104f657610173565b8063a622ee7c14610464578063ae28d1281461048a578063b60f151a1461049257610173565b806358d94fbc146103905780635aa6e675146103c65780636e4af83e146103ea57806381860170146104105780639137c1a714610436578063975057e71461045c57610173565b80633259eeb6116101305780633259eeb61461027857806338dd98761461029e57806338f5a5e4146102c45780633c53eddd146102ea5780633e3309cc1461032c57806340c0423e1461035857610173565b8063026a0dd0146101785780630d453efb1461019257806313a86924146101cc5780632da624a314610206578063301153f11461022c57806330e412ad14610252575b600080fd5b610180610522565b60408051918252519081900360200190f35b6101b8600480360360208110156101a857600080fd5b50356001600160a01b0316610527565b604080519115158252519081900360200190f35b610204600480360360808110156101e257600080fd5b506001600160a01b038135169060208101359060408101359060600135610545565b005b6101806004803603602081101561021c57600080fd5b50356001600160a01b03166109f6565b6102046004803603602081101561024257600080fd5b50356001600160a01b0316610a63565b6101b86004803603602081101561026857600080fd5b50356001600160a01b0316610b95565b6102046004803603602081101561028e57600080fd5b50356001600160a01b0316610baa565b610204600480360360208110156102b457600080fd5b50356001600160a01b0316610cd9565b610204600480360360208110156102da57600080fd5b50356001600160a01b0316610db4565b610204600480360360a081101561030057600080fd5b506001600160a01b03813581169160208101359091169060408101359060608101359060800135610e91565b6102046004803603604081101561034257600080fd5b506001600160a01b038135169060200135611176565b6102046004803603608081101561036e57600080fd5b506001600160a01b03813516906020810135906040810135906060013561124f565b610204600480360360608110156103a657600080fd5b506001600160a01b0381358116916020810135909116906040013561151f565b6103ce611664565b604080516001600160a01b039092168252519081900360200190f35b6102046004803603602081101561040057600080fd5b50356001600160a01b03166116e4565b6102046004803603602081101561042657600080fd5b50356001600160a01b03166117be565b6102046004803603602081101561044c57600080fd5b50356001600160a01b03166118de565b6103ce611a14565b6101b86004803603602081101561047a57600080fd5b50356001600160a01b0316611a23565b6103ce611a38565b610180611a47565b6101b8600480360360208110156104b057600080fd5b50356001600160a01b0316611a4c565b6103ce611a61565b610204600480360360408110156104de57600080fd5b506001600160a01b0381358116916020013516611a70565b6102046004803603604081101561050c57600080fd5b506001600160a01b038135169060200135611cbe565b606481565b6001600160a01b031660009081526003602052604090205460ff1690565b838383836000846001600160a01b03166377c7b8fc6040518163ffffffff1660e01b815260040160206040518083038186803b15801561058457600080fd5b505afa158015610598573d6000803e3d6000fd5b505050506040513d60208110156105ae57600080fd5b50519050670de0b6b3a764000084821115610635576105d7836105d18684611d63565b90611dc5565b6105e5866105d18585611d63565b1115610630576040805162461bcd60e51b815260206004820152601560248201527439b430b93290383934b1b2903232bb34b0ba34b7b760591b604482015290519081900360640190fd5b61069c565b610643836105d18684611d63565b610651836105d18885611d63565b111561069c576040805162461bcd60e51b815260206004820152601560248201527439b430b93290383934b1b2903232bb34b0ba34b7b760591b604482015290519081900360640190fd5b3360009081526005602052604090205460ff16806106d257506106bd611664565b6001600160a01b0316336001600160a01b0316145b610723576040805162461bcd60e51b815260206004820152601e60248201527f6f6e6c79206861726420776f726b65722063616e2063616c6c20746869730000604482015290519081900360640190fd5b6001600160a01b038a166000908152600360205260409020548a9060ff16610789576040805162461bcd60e51b81526020600482015260146024820152731d985d5b1d08191bd95cc81b9bdd08195e1a5cdd60621b604482015290519081900360640190fd5b60008b6001600160a01b03166377c7b8fc6040518163ffffffff1660e01b815260040160206040518083038186803b1580156107c457600080fd5b505afa1580156107d8573d6000803e3d6000fd5b505050506040513d60208110156107ee57600080fd5b5051604080516313e9761560e21b815290519192506001600160a01b038e1691634fa5d8549160048082019260009290919082900301818387803b15801561083557600080fd5b505af1158015610849573d6000803e3d6000fd5b50506004546001600160a01b03161591506108ce90505760048054604080516333b54be160e01b815233938101939093526001600160a01b038f8116602485015290519116916333b54be191604480830192600092919082900301818387803b1580156108b557600080fd5b505af11580156108c9573d6000803e3d6000fd5b505050505b8b6001600160a01b031663a8c62e766040518163ffffffff1660e01b815260040160206040518083038186803b15801561090757600080fd5b505afa15801561091b573d6000803e3d6000fd5b505050506040513d602081101561093157600080fd5b505160408051631df1ee3f60e21b815290516001600160a01b03928316928f16917f43ffccb0abea5304f42c5d67d56e479f21f76ecc142c39a770725e99125243bc91859184916377c7b8fc91600480820192602092909190829003018186803b15801561099e57600080fd5b505afa1580156109b2573d6000803e3d6000fd5b505050506040513d60208110156109c857600080fd5b50516040805192835260208301919091524282820152519081900360600190a3505050505050505050505050565b6000816001600160a01b03166377c7b8fc6040518163ffffffff1660e01b815260040160206040518083038186803b158015610a3157600080fd5b505afa158015610a45573d6000803e3d6000fd5b505050506040513d6020811015610a5b57600080fd5b505192915050565b600054604080516337b87c3960e21b815233600482015290516001600160a01b039092169163dee1f0e491602480820192602092909190829003018186803b158015610aae57600080fd5b505afa158015610ac2573d6000803e3d6000fd5b505050506040513d6020811015610ad857600080fd5b5051610b1c576040805162461bcd60e51b815260206004820152600e60248201526d4e6f7420676f7665726e616e636560901b604482015290519081900360640190fd5b6001600160a01b038116610b71576040805162461bcd60e51b815260206004820152601760248201527617dddbdc9ad95c881b5d5cdd081899481919599a5b9959604a1b604482015290519081900360640190fd5b6001600160a01b03166000908152600560205260409020805460ff19166001179055565b60026020526000908152604090205460ff1681565b600054604080516337b87c3960e21b815233600482015290516001600160a01b039092169163dee1f0e491602480820192602092909190829003018186803b158015610bf557600080fd5b505afa158015610c09573d6000803e3d6000fd5b505050506040513d6020811015610c1f57600080fd5b5051610c63576040805162461bcd60e51b815260206004820152600e60248201526d4e6f7420676f7665726e616e636560901b604482015290519081900360640190fd5b6001600160a01b038116610cb8576040805162461bcd60e51b815260206004820152601760248201527617dddbdc9ad95c881b5d5cdd081899481919599a5b9959604a1b604482015290519081900360640190fd5b6001600160a01b03166000908152600560205260409020805460ff19169055565b600054604080516337b87c3960e21b815233600482015290516001600160a01b039092169163dee1f0e491602480820192602092909190829003018186803b158015610d2457600080fd5b505afa158015610d38573d6000803e3d6000fd5b505050506040513d6020811015610d4e57600080fd5b5051610d92576040805162461bcd60e51b815260206004820152600e60248201526d4e6f7420676f7665726e616e636560901b604482015290519081900360640190fd5b600480546001600160a01b0319166001600160a01b0392909216919091179055565b600054604080516337b87c3960e21b815233600482015290516001600160a01b039092169163dee1f0e491602480820192602092909190829003018186803b158015610dff57600080fd5b505afa158015610e13573d6000803e3d6000fd5b505050506040513d6020811015610e2957600080fd5b5051610e6d576040805162461bcd60e51b815260206004820152600e60248201526d4e6f7420676f7665726e616e636560901b604482015290519081900360640190fd5b6001600160a01b03166000908152600260205260409020805460ff19166001179055565b848383836000846001600160a01b03166377c7b8fc6040518163ffffffff1660e01b815260040160206040518083038186803b158015610ed057600080fd5b505afa158015610ee4573d6000803e3d6000fd5b505050506040513d6020811015610efa57600080fd5b50519050670de0b6b3a764000084821115610f7b57610f1d836105d18684611d63565b610f2b866105d18585611d63565b1115610f76576040805162461bcd60e51b815260206004820152601560248201527439b430b93290383934b1b2903232bb34b0ba34b7b760591b604482015290519081900360640190fd5b610fe2565b610f89836105d18684611d63565b610f97836105d18885611d63565b1115610fe2576040805162461bcd60e51b815260206004820152601560248201527439b430b93290383934b1b2903232bb34b0ba34b7b760591b604482015290519081900360640190fd5b600054604080516337b87c3960e21b815233600482015290516001600160a01b039092169163dee1f0e491602480820192602092909190829003018186803b15801561102d57600080fd5b505afa158015611041573d6000803e3d6000fd5b505050506040513d602081101561105757600080fd5b505161109b576040805162461bcd60e51b815260206004820152600e60248201526d4e6f7420676f7665726e616e636560901b604482015290519081900360640190fd5b6001600160a01b038b166000908152600360205260409020548b9060ff16611101576040805162461bcd60e51b81526020600482015260146024820152731d985d5b1d08191bd95cc81b9bdd08195e1a5cdd60621b604482015290519081900360640190fd5b8b6001600160a01b03166333a100ca8c6040518263ffffffff1660e01b815260040180826001600160a01b03168152602001915050600060405180830381600087803b15801561115057600080fd5b505af1158015611164573d6000803e3d6000fd5b50505050505050505050505050505050565b600054604080516337b87c3960e21b815233600482015290516001600160a01b039092169163dee1f0e491602480820192602092909190829003018186803b1580156111c157600080fd5b505afa1580156111d5573d6000803e3d6000fd5b505050506040513d60208110156111eb57600080fd5b505161122f576040805162461bcd60e51b815260206004820152600e60248201526d4e6f7420676f7665726e616e636560901b604482015290519081900360640190fd5b61124b61123a611664565b6001600160a01b0384169083611e07565b5050565b838383836000846001600160a01b03166377c7b8fc6040518163ffffffff1660e01b815260040160206040518083038186803b15801561128e57600080fd5b505afa1580156112a2573d6000803e3d6000fd5b505050506040513d60208110156112b857600080fd5b50519050670de0b6b3a764000084821115611339576112db836105d18684611d63565b6112e9866105d18585611d63565b1115611334576040805162461bcd60e51b815260206004820152601560248201527439b430b93290383934b1b2903232bb34b0ba34b7b760591b604482015290519081900360640190fd5b6113a0565b611347836105d18684611d63565b611355836105d18885611d63565b11156113a0576040805162461bcd60e51b815260206004820152601560248201527439b430b93290383934b1b2903232bb34b0ba34b7b760591b604482015290519081900360640190fd5b600054604080516337b87c3960e21b815233600482015290516001600160a01b039092169163dee1f0e491602480820192602092909190829003018186803b1580156113eb57600080fd5b505afa1580156113ff573d6000803e3d6000fd5b505050506040513d602081101561141557600080fd5b5051611459576040805162461bcd60e51b815260206004820152600e60248201526d4e6f7420676f7665726e616e636560901b604482015290519081900360640190fd5b6001600160a01b038a166000908152600360205260409020548a9060ff166114bf576040805162461bcd60e51b81526020600482015260146024820152731d985d5b1d08191bd95cc81b9bdd08195e1a5cdd60621b604482015290519081900360640190fd5b8a6001600160a01b031663853828b66040518163ffffffff1660e01b8152600401600060405180830381600087803b1580156114fa57600080fd5b505af115801561150e573d6000803e3d6000fd5b505050505050505050505050505050565b600054604080516337b87c3960e21b815233600482015290516001600160a01b039092169163dee1f0e491602480820192602092909190829003018186803b15801561156a57600080fd5b505afa15801561157e573d6000803e3d6000fd5b505050506040513d602081101561159457600080fd5b50516115d8576040805162461bcd60e51b815260206004820152600e60248201526d4e6f7420676f7665726e616e636560901b604482015290519081900360640190fd5b826001600160a01b0316631113ef526115ef611664565b84846040518463ffffffff1660e01b815260040180846001600160a01b03168152602001836001600160a01b031681526020018281526020019350505050600060405180830381600087803b15801561164757600080fd5b505af115801561165b573d6000803e3d6000fd5b50505050505050565b60008060009054906101000a90046001600160a01b03166001600160a01b0316635aa6e6756040518163ffffffff1660e01b815260040160206040518083038186803b1580156116b357600080fd5b505afa1580156116c7573d6000803e3d6000fd5b505050506040513d60208110156116dd57600080fd5b5051905090565b600054604080516337b87c3960e21b815233600482015290516001600160a01b039092169163dee1f0e491602480820192602092909190829003018186803b15801561172f57600080fd5b505afa158015611743573d6000803e3d6000fd5b505050506040513d602081101561175957600080fd5b505161179d576040805162461bcd60e51b815260206004820152600e60248201526d4e6f7420676f7665726e616e636560901b604482015290519081900360640190fd5b6001600160a01b03166000908152600260205260409020805460ff19169055565b600054604080516337b87c3960e21b815233600482015290516001600160a01b039092169163dee1f0e491602480820192602092909190829003018186803b15801561180957600080fd5b505afa15801561181d573d6000803e3d6000fd5b505050506040513d602081101561183357600080fd5b5051611877576040805162461bcd60e51b815260206004820152600e60248201526d4e6f7420676f7665726e616e636560901b604482015290519081900360640190fd5b6001600160a01b0381166118bc5760405162461bcd60e51b81526004018080602001828103825260288152602001806123636028913960400191505060405180910390fd5b600180546001600160a01b0319166001600160a01b0392909216919091179055565b600054604080516337b87c3960e21b815233600482015290516001600160a01b039092169163dee1f0e491602480820192602092909190829003018186803b15801561192957600080fd5b505afa15801561193d573d6000803e3d6000fd5b505050506040513d602081101561195357600080fd5b5051611997576040805162461bcd60e51b815260206004820152600e60248201526d4e6f7420676f7665726e616e636560901b604482015290519081900360640190fd5b6001600160a01b0381166119f2576040805162461bcd60e51b815260206004820152601e60248201527f6e65772073746f726167652073686f756c646e277420626520656d7074790000604482015290519081900360640190fd5b600080546001600160a01b0319166001600160a01b0392909216919091179055565b6000546001600160a01b031681565b60036020526000908152604090205460ff1681565b6001546001600160a01b031681565b600581565b60056020526000908152604090205460ff1681565b6004546001600160a01b031681565b600054604080516337b87c3960e21b815233600482015290516001600160a01b039092169163dee1f0e491602480820192602092909190829003018186803b158015611abb57600080fd5b505afa158015611acf573d6000803e3d6000fd5b505050506040513d6020811015611ae557600080fd5b5051611b29576040805162461bcd60e51b815260206004820152600e60248201526d4e6f7420676f7665726e616e636560901b604482015290519081900360640190fd5b6001600160a01b038216611b84576040805162461bcd60e51b815260206004820152601c60248201527f6e6577207661756c742073686f756c646e277420626520656d70747900000000604482015290519081900360640190fd5b6001600160a01b03821660009081526003602052604090205460ff1615611be9576040805162461bcd60e51b81526020600482015260146024820152737661756c7420616c72656164792065786973747360601b604482015290519081900360640190fd5b6001600160a01b038116611c44576040805162461bcd60e51b815260206004820152601f60248201527f6e65772073747261746567792073686f756c646e277420626520656d70747900604482015290519081900360640190fd5b6001600160a01b03808316600081815260036020526040808220805460ff1916600117905580516319d0806560e11b815293851660048501525191926333a100ca926024808301939282900301818387803b158015611ca257600080fd5b505af1158015611cb6573d6000803e3d6000fd5b505050505050565b801561124b57611cd96001600160a01b038316333084611e5e565b600154611cf4906001600160a01b0384811691166000611ebe565b600154611d0e906001600160a01b03848116911683611ebe565b60015460408051632106bc9160e21b81526001600160a01b038581166004830152602482018590529151919092169163841af24491604480830192600092919082900301818387803b158015611ca257600080fd5b600082611d7257506000611dbf565b82820282848281611d7f57fe5b0414611dbc5760405162461bcd60e51b815260040180806020018281038252602181526020018061230c6021913960400191505060405180910390fd5b90505b92915050565b6000611dbc83836040518060400160405280601a81526020017f536166654d6174683a206469766973696f6e206279207a65726f000000000000815250611fd1565b604080516001600160a01b038416602482015260448082018490528251808303909101815260649091019091526020810180516001600160e01b031663a9059cbb60e01b179052611e59908490612073565b505050565b604080516001600160a01b0380861660248301528416604482015260648082018490528251808303909101815260849091019091526020810180516001600160e01b03166323b872dd60e01b179052611eb8908590612073565b50505050565b801580611f44575060408051636eb1769f60e11b81523060048201526001600160a01b03848116602483015291519185169163dd62ed3e91604480820192602092909190829003018186803b158015611f1657600080fd5b505afa158015611f2a573d6000803e3d6000fd5b505050506040513d6020811015611f4057600080fd5b5051155b611f7f5760405162461bcd60e51b815260040180806020018281038252603681526020018061232d6036913960400191505060405180910390fd5b604080516001600160a01b038416602482015260448082018490528251808303909101815260649091019091526020810180516001600160e01b031663095ea7b360e01b179052611e59908490612073565b6000818361205d5760405162461bcd60e51b81526004018080602001828103825283818151815260200191508051906020019080838360005b8381101561202257818101518382015260200161200a565b50505050905090810190601f16801561204f5780820380516001836020036101000a031916815260200191505b509250505060405180910390fd5b50600083858161206957fe5b0495945050505050565b60606120c8826040518060400160405280602081526020017f5361666542455032303a206c6f772d6c6576656c2063616c6c206661696c6564815250856001600160a01b03166121249092919063ffffffff16565b805190915015611e59578080602001905160208110156120e757600080fd5b5051611e595760405162461bcd60e51b815260040180806020018281038252602a8152602001806122e2602a913960400191505060405180910390fd5b6060612133848460008561213b565b949350505050565b6060612146856122a8565b612197576040805162461bcd60e51b815260206004820152601d60248201527f416464726573733a2063616c6c20746f206e6f6e2d636f6e7472616374000000604482015290519081900360640190fd5b60006060866001600160a01b031685876040518082805190602001908083835b602083106121d65780518252601f1990920191602091820191016121b7565b6001836020036101000a03801982511681845116808217855250505050505090500191505060006040518083038185875af1925050503d8060008114612238576040519150601f19603f3d011682016040523d82523d6000602084013e61223d565b606091505b509150915081156122515791506121339050565b8051156122615780518082602001fd5b60405162461bcd60e51b815260206004820181815286516024840152865187939192839260440191908501908083836000831561202257818101518382015260200161200a565b6000813f7fc5d2460186f7233c927e7db2dcc703c0e500b653ca82273b7bfad8045d85a47081811480159061213357505015159291505056fe5361666542455032303a204245503230206f7065726174696f6e20646964206e6f742073756363656564536166654d6174683a206d756c7469706c69636174696f6e206f766572666c6f775361666542455032303a20617070726f76652066726f6d206e6f6e2d7a65726f20746f206e6f6e2d7a65726f20616c6c6f77616e63656e65772072657761726420666f727761726465722073686f756c64206e6f7420626520656d707479a264697066735822122032ebb280d1e58a028b62069daa1bff50d5a79cee53e7e6069c5dc06b8b9b1fc064736f6c634300060c0033666565526577617264466f727761726465722073686f756c64206e6f7420626520656d707479",
  "devdoc": {
    "kind": "dev",
    "methods": {},
    "version": 1
  },
  "userdoc": {
    "kind": "user",
    "methods": {},
    "version": 1
  },
  "storageLayout": {
    "storage": [
      {
        "astId": 4805,
        "contract": "contracts/lib/@harvest-finance/Controller.sol:Controller",
        "label": "store",
        "offset": 0,
        "slot": "0",
        "type": "t_contract(Storage)5341"
      },
      {
        "astId": 3891,
        "contract": "contracts/lib/@harvest-finance/Controller.sol:Controller",
        "label": "feeRewardForwarder",
        "offset": 0,
        "slot": "1",
        "type": "t_address"
      },
      {
        "astId": 3896,
        "contract": "contracts/lib/@harvest-finance/Controller.sol:Controller",
        "label": "greyList",
        "offset": 0,
        "slot": "2",
        "type": "t_mapping(t_address,t_bool)"
      },
      {
        "astId": 3900,
        "contract": "contracts/lib/@harvest-finance/Controller.sol:Controller",
        "label": "vaults",
        "offset": 0,
        "slot": "3",
        "type": "t_mapping(t_address,t_bool)"
      },
      {
        "astId": 3902,
        "contract": "contracts/lib/@harvest-finance/Controller.sol:Controller",
        "label": "hardRewards",
        "offset": 0,
        "slot": "4",
        "type": "t_contract(HardRewards)5245"
      },
      {
        "astId": 4007,
        "contract": "contracts/lib/@harvest-finance/Controller.sol:Controller",
        "label": "hardWorkers",
        "offset": 0,
        "slot": "5",
        "type": "t_mapping(t_address,t_bool)"
      }
    ],
    "types": {
      "t_address": {
        "encoding": "inplace",
        "label": "address",
        "numberOfBytes": "20"
      },
      "t_bool": {
        "encoding": "inplace",
        "label": "bool",
        "numberOfBytes": "1"
      },
      "t_contract(HardRewards)5245": {
        "encoding": "inplace",
        "label": "contract HardRewards",
        "numberOfBytes": "20"
      },
      "t_contract(Storage)5341": {
        "encoding": "inplace",
        "label": "contract Storage",
        "numberOfBytes": "20"
      },
      "t_mapping(t_address,t_bool)": {
        "encoding": "mapping",
        "key": "t_address",
        "label": "mapping(address => bool)",
        "numberOfBytes": "32",
        "value": "t_bool"
      }
    }
  }
}